:100000003CC0B5C154C053C052C051C050C04FC015
:100010004EC04DC04CC04BC0090219000101008008
:100020001409040000010000000007058103080016
:100030006412011001FF000008C016DC0501010177
:10004000020001140350004500520073007700695C
:10005000007400630068001E0375006E0065007484
:10006000006800690073006300680065002E006F7F
:100070000072006700040309040011241FBECFEDC5
:10008000CDBF10E0A0E6B0E0E2EBF7E003C0C8951A
:1000900031960D92A236B107D1F710E0A2E6B0E09A
:1000A00001C01D92AC39B107E1F757D380C3A8CF87
:1000B000CF93C62F2091710024FF07C020917200BA
:1000C00038E823272093720003C02AE520937100AB
:1000D000A82FB92FE3E7F0E09C2F9E0F8D9181931D
:1000E000892F8E1B1816D4F36C2F83E790E028D14C
:1000F000CC5FC0937100CF910895CF93DF9380912F
:100100008200835087FD94C090917F0020917E00F3
:100110002D3209F08BC0883009F088C0CCE0D0E0E7
:10012000C91BD109CA57DF4F83EC809366008AE56B
:1001300080936100109263008881807621F08C2F7B
:100140009D2FCBD26AC09A8110926F008981811154
:1001500006C0109270002FE630E082E05AC0853071
:1001600019F49093830052C08630D1F58B81813091
:1001700041F481E390E0909381008093800082E1DC
:100180002BC0823041F488E190E09093810080930D
:10019000800089E121C08330F1F4911108C085E726
:1001A00090E0909381008093800084E015C09130AE
:1001B00041F487E590E090938100809380008EE188
:1001C0000BC0923041F483E490E0909381008093DF
:1001D000800084E101C080E090E4909363001DC042
:1001E000883069F0893019F4909385000FC08A3007
:1001F00049F08B3059F48BE48093720007C025E8F6
:1002000030E002C02FE630E081E003C02FE630E0AE
:1002100080E030938100209380009F81911104C081
:100220009E81981708F4892F8093600010928200B5
:100230008091610084FF49C0809160008F3F09F484
:1002400044C0C82F893008F0C8E08C1B8093600040
:100250008091660098E8892780936600CC2349F155
:1002600020918000309181008091630086FF0DC055
:10027000A7E6B0E0E22FF32F8C2F8A0FC895902DC0
:100280009D9331968A13FACF0AC0A22FB32FE7E6C7
:10029000F0E08C2F8E0F9D9191938E13FCCF8FEFFA
:1002A0008C0F90E00196820F931F909381008093B2
:1002B00080006C2F87E690E043D0CC5FCC3019F003
:1002C0008FEF80936000C093610084E196B39076D5
:1002D00031F48150D9F71092830010927D00C1E073
:1002E0008111C0E0809162008C1729F0C11101C01A
:1002F000DDD1C0936200DF91CF91089585B7826010
:1003000085BF8BB780648BBF8BE4809372008AE5D6
:10031000809371000895A82FB92F80E090E041E00C
:1003200050EA609530E009C02D9182279795879516
:1003300010F084279527305EC8F36F5FA8F3089507
:10034000EADF8D939D930895A6E088279927AA95C3
:1003500069F00197E1F3B599FCCFB59BFECF81E041
:100360009927A6B3019611F0A076D9F70895CF93F7
:10037000CFB7CF93C395B59BE9F7B59B0BC0B59BA2
:1003800009C0B59B07C0B59B05C0B59B03C0B59B15
:1003900001C0D5C00F92DF93C0917F00DD27CA57FF
:1003A000DF4F012EB59B03C0DF910F90E6CF2F9357
:1003B0000F931F934F932FEF4F6F06B305FB20F959
:1003C0005F933F9350E03BE065C016B30126502990
:1003D00055FDC89556B3012705FB25F92F7306B3C4
:1003E000B1F05027102715FB26F906B22230F0F0A5
:1003F00000C016B3012705FB27F90126502906B2D4
:100400002430E8F54F77206816B30000F6CF502768
:100410004F7D206206B2102F000000C006B30026F8
:100420005029102715FB26F906B2E2CF4F7B06B301
:10043000206400C0DACF01265029107606B269F197
:100440004E7F2160012F16B328C0002650294D7F12
:1004500006B22260102F29C0012650294B7F06B218
:100460002460012F2DC016B301265029477F286034
:10047000000006B22EC04F7E06B3206130C0422776
:1004800006B3499300265029102706B24FEF15FBFB
:1004900020F9297F16B379F2107659F101265029F7
:1004A00006B2012705FB21F9237F06B371F200266E
:1004B00050293150D0F006B2102715FB22F9277EC3
:1004C00016B351F201265029012705FB06B223F984
:1004D0002F7C49F2000006B3102715FB24F90026F3
:1004E000502906B22F7939F270CF10E41ABF0027D5
:1004F00019C03B503195C31BD04010E41ABF08818E
:10050000033C09F10B34F9F020917D001981110FA2
:100510001213EDCF4A81441F093651F10D3211F00B
:10052000013E29F7009384003F915F914F911F9105
:100530000F912F91DF910F90CAB7C6FD1BCFCF91BE
:10054000CFBFCF91189520918400222369F3109199
:100550008200112379F534307AF1309382002093B0
:100560007E0010917F003BE0311B30937F0024C060
:10057000009182000130F4F40AE54F7049F43091A3
:10058000610034FD1AC000936100C6E6D0E019C0D6
:100590003091710034FD11C000937100C2E7D0E0CA
:1005A00010C0052710E000C021C0052710E0C89545
:1005B00008BB14C03AE501C032ED032EC0E0D0E024
:1005C00032E017B31066C59A08B317BB50E620E8AF
:1005D0004FEF20FF052708BB279517951C3F28F7ED
:1005E00000004552B0F720FF0527279508BB179557
:1005F0001C3FB8F629913A9561F70F791091830065
:10060000110F08BBC250D04011F010937D0010E4D0
:100610001ABF006217B31F79402F4F7954E05A95E3
:10062000F1F708BB17BB48BB7FCFDF92EF92FF9279
:100630000F931F93CF93DF93C8E0D0E0F12C80E8B5
:10064000E82EDF2CDE0CD1BE7FDE082F192F0433FD
:1006500089E018070CF4FD2CE6942197209789F780
:100660008FEF8F0D81BFCF2DD0E0219681B790E025
:10067000C817D90794F068DE8453994097FF03C0E8
:10068000919581959109801791071CF4F1B6082F77
:10069000192F81B78F5F81BFE9CFF1BEDF91CF9175
:1006A0001F910F91FF90EF90DF900895BEDF61B72B
:1006B00080E090E06FC080E090E064D08F3F09F070
:1006C00081BF0895E82FF92F8081442311F0862BF4
:1006D00002C060958623808308950F931F93CF9364
:1006E000DF93E82FF92F0381C1E0D0E0028002C040
:1006F000CC0FDD1F0A94E2F7448184E690E09093EA
:100700008100809380001181113061F4013011F477
:1007100088B301C08BB38C2391E009F490E09093EF
:10072000640015C0123091F46C2F013039F48C2F15
:100730008550823018F088E390E002C08BE390E0AF
:10074000C1DF00936400C093650001C010E0812FF9
:10075000DF91CF911F910F910895ADDFCFDDBD9A4D
:100760002BE187ED9CE0215080409040E1F700C0F4
:100770000000BD9881E08ABB87BB8FE987BB789476
:10078000BCDCFECFE199FECF1FBA8EBBE09A992761
:100790008DB30895262FE199FECF1FBA8EBB2DBBD6
:1007A0000FB6F894E29AE19A0FBE01960895F89474
:0207B000FFCF79
:0207B200FF5AEC
:00000001FF
